:100000000C94F5000C941D010C941D010C941D0121
:100010000C941D010C941D010C941D010C941513DE
:100020000C941D010C941D010C941A150C9493133F
:100030000C941D010C941D010C941D010C941D01C8
:100040000C94AC110C941D010C941D010C941D0119
:100050000C941D010C941D010C941D010C941D01A8
:100060000C94F6110C941D015374617475733F0068
:10007000496E626574726965626E61686D653F00A4
:1000800043563F004932432D5363616E3F0066651E
:10009000727469670030780056657273696F6E20FC
:1000A000004C4E2D46617374436C6F636B00457654
:1000B000656E004F646420002D313A002D2D2D0017
:1000C0003F3F3F00436F6E66696720310053572DF5
:1000D00049440056657273696F6E005265736572AC
:1000E0007665005265736572766500526573657258
:1000F0007665005265736572766500526573657248
:10010000766500446576696365494400726F004313
:1001100056002D2D3A2D2D006661696C65640073C3
:10012000746F7265640046617374436C6F636B0037
:100130005374617475730000000008000201000030
:10014000030407000000000000000000000000257C
:100150000028002B0000000000240027002A0004D3
:10016000040404040404040202020202020303035E
:100170000303030102040810204080010204081058
:10018000200102040810200086227E6DD24620291C
:100190000B2170104080523F065B4F666D7D077FDC
:1001A0006F090D614843D35F777C395E79713D7685
:1001B000301E753815373F736B336D783E3E2A76A7
:1001C0006E5B39640F2308025F7C585E7B716F742D
:1001D000100C753014545C7367506D781C1C1476C9
:1001E0006E5B463070010000501511241FBECFEF2A
:1001F000D8E0DEBFCDBF11E0A0E0B1E0E2E3F4E47F
:1002000002C005900D92A03AB107D9F724E0A0EA08
:10021000B1E001C01D92A735B207E1F710E0C5EFCC
:10022000D0E004C02197FE010E94D120C43FD10735
:10023000C9F70E945B160C9417220C94000091E001
:100240009093AD038093CF031092AE031092D0032E
:100250000895089508958530A8F4262F2052330B71
:10026000F901E957FE4FE491A82FB0E0AA0FBB1F98
:10027000AD5DBB4F30E8439FA0011124E42BF0E0BB
:10028000ED93FC930895843054F4082E000C990BE0
:10029000DC01AF52BC4F633318F08FEF8C9308959D
:1002A00061110DC020915104211107C02091D60386
:1002B0002150330B2817390781F780ECEFCFE62F59
:1002C000F0E0E35BFE4F8081E9CF90E0FC01ED5868
:1002D000FE4F2491815A9E4FFC018491882399F00E
:1002E00090E0880F991FFC01EB5AFE4FA591B49145
:1002F000FC01E55BFE4F859194918FB7F894EC91EA
:10030000E22BEC938FBF089590E0FC01E95CFE4F77
:100310002491FC01ED58FE4F3491FC01E15AFE4F4F
:10032000E491EE23C9F0222339F0233001F1A8F43F
:10033000213019F1223029F1F0E0EE0FFF1FE55BCB
:10034000FE4FA591B4918FB7F894EC91611126C03E
:1003500030953E233C938FBF08952730A9F0283075
:10036000C9F0243049F7809180008F7D03C08091CF
:1003700080008F7780938000DFCF84B58F7784BD36
:10038000DBCF84B58F7DFBCF8091B0008F778093DA
:10039000B000D2CF8091B0008F7DF9CF3E2BDACF65
:1003A0003FB7F8948091A7029091A802A091A9026A
:1003B000B091AA0226B5A89B05C02F3F19F001965F
:1003C000A11DB11D3FBFBA2FA92F982F8827BC01AF
:1003D000CD01620F711D811D911D42E0660F771FD7
:1003E000881F991F4A95D1F708952FB7F894609107
:1003F000A3027091A4028091A5029091A6022FBF42
:100400000895AF92BF92CF92DF92EF92FF920F9337
:100410001F93CF93DF936C017B018B01040F151F9A
:10042000EB015E01AE18BF08C017D10759F0699102
:10043000D601ED91FC910190F081E02DC601099566
:10044000892B79F7C501DF91CF911F910F91FF9013
:10045000EF90DF90CF90BF90AF900895209157021A
:10046000260F3327331F21323105ECF42091A703E7
:10047000FC0190E080E0243069F082E00895A091D2
:1004800057022191AC01495C5D4FA40FB52FB11DFE
:100490002C930196861798F380915702680F60930A
:1004A000570280E0089581E008951092A70381E04B
:1004B0008093A6031092810361E082E10E9484018F
:1004C00061E083E10E948401E9EBF0E080818E7FAE
:1004D000808380818D7F808388E48093B80085E469
:1004E0008093BC0008951092800310927F031092B5
:1004F000AE031092D0030E94550289E291E09093DE
:100500007E0380937D038AE291E090937C03809345
:100510007B030895CF93DF9391E090933602882375
:10052000B9F0C091B800D091BA008091BC008A7B2C
:100530008093BC0060E082E10E94840160E083E17E
:100540000E9484010E945502D093BA00C093B80063
:10055000DF91CF9108958F929F92AF92BF92CF92E9
:10056000DF92EF92FF920F931F93CF93DF93D0917F
:10057000D003D13208F0D7C0182FC091CF030E940A
:10058000D0016B017C018091A70381116BC082E0D7
:100590008093A7031093A6038FEF8093A503109277
:1005A000A403D093A303AFEAB3E0E3E8F3E080E071
:1005B000D81391C01092820380918203CC0FC82B74
:1005C000C093820380918103813009F088C010922A
:1005D00081030E94D0016B017C0180918203809392
:1005E000BB008091A9039091AA03A091AB03B091A5
:1005F000AC03892B8A2B8B2BA1F00E94D001009198
:10060000A9031091AA032091AB033091AC036C199C
:100610007D098E099F09061717072807390708F46F
:1006200042C08091BC0083FDD8CF85EC8093BC0094
:100630000E94D0016B017C018091A703823009F4F4
:1006400050C08091A5038F3F09F46FC08091A5032E
:10065000803209F46CC08091A503803309F469C02D
:1006600084E026C08091A9039091AA03A091AB03D6
:10067000B091AC03892B8A2B8B2B09F484CF0E9479
:10068000D0018090A9039090AA03A090AB03B090F2
:10069000AC036C197D098E099F0986169706A8067A
:1006A000B90608F070CF8091A8030E948A0285E005
:1006B0001092AE031092D0031092AD03DF91CF9150
:1006C0001F910F91FF90EF90DF90CF90BF90AF9070
:1006D0009F908F9008959D9191938F5F69CF85EE44
:1006E000A5CF8091A9039091AA03A091AB03B091EB
:1006F000AC03892B8A2B8B2B09F49ECF0E94D0014F
:100700000091A9031091AA032091AB033091AC038F
:100710006C197D098E099F090617170728073907E5
:1007200008F08ACFC0CF81E0C3CF80E0C1CF82E0A4
:10073000BFCF83E0BDCFCF92DF92EF92FF920F93B6
:100740001F93CF93DF93D82FC62F613208F098C044
:100750000E94D0016B017C018091A70381116BC0C5
:1007600081E08093A7038093A6039FEF9093A50356
:100770001092A4039C0F9093A30380938203809113
:100780008203DD0FD82BD0938203809181038130C7
:1007900009F078C0109281030E94D0016B017C01A6
:1007A000809182038093BB008091A9039091AA035A
:1007B000A091AB03B091AC03892B8A2B8B2BA1F0BA
:1007C0000E94D0010091A9031091AA032091AB03CC
:1007D0003091AC036C197D098E099F090617170724
:1007E0002807390708F448C08091BC0083FDD8CFA2
:1007F00085EC8093BC000E94D0016B017C0180914C
:10080000A703813009F440C08091A4038C1710F431
:10081000C091A403E3E8F3E0ABE5B3E080E08C1320
:1008200055C08C2FDF91CF911F910F91FF90EF90CA
:10083000DF90CF9008958091A9039091AA03A09191
:10084000AB03B091AC03892B8A2B8B2B09F484CF9B
:100850000E94D0010091A9031091AA032091AB033B
:100860003091AC036C197D098E099F090617170793
:100870002807390708F070CF8091A8030E948A02E8
:10088000C0E0CFCF85EEB5CF8091A9039091AA03A8
:10089000A091AB03B091AC03892B8A2B8B2B09F46D
:1008A000AECF0E94D0010091A9031091AA0320911C
:1008B000AB033091AC036C197D098E099F090617B3
:1008C00017072807390708F09ACFD6CF91919D9343
:1008D0008F5FA5CF0895E091800380917F03E81793
:1008E00030F4F0E0E55AFC4F808190E008958FEFFE
:1008F0009FEF08959091800380917F032FEF3FEF4A
:10090000981748F4E92FF0E0E55AFC4F208130E0D9
:100910009F5F90938003C901089580917F03909118
:100920008003891B990B0895CF92DF92EF92FF927B
:100930000F931F93CF93DF937C01CB018A0120910A
:10094000AD03222389F0EB016B01C40ED51ECC153B
:10095000DD0569F06991D701ED91FC910190F0817D
:10096000E02DC7010995F3CF642F0E942E02C80124
:10097000DF91CF911F910F91FF90EF90DF90CF907B
:100980000895CF93DF931F92CDB7DEB7698320918F
:10099000AD032223F9F02091D003203258F021E05A
:1009A00030E0FC013383228390E080E00F90DF9100
:1009B000CF9108958091AE03E82FF0E0E155FC4F10
:1009C000998190838F5F8093AE038093D00381E001
:1009D00090E0ECCF61E0CE0101960E942E02F7CFAD
:1009E000682F86E394E00C94C10481E00C94AB0280
:1009F000CF93DF93C2E4D4E08A8388810E941F01F1
:100A00008E819F81DC01ED91FC910190F081E02DC0
:100A10006A8109958E819F810E94F50490E09D83F3
:100A20008C83DF91CF910895CF93DF93EC011882EF
:100A30000E947302888180620E941F0180E00E94F0
:100A4000F0048FEF0E94F00486E394E00E94F50426
:100A5000888180620E941F0181E00E94F0048FEF74
:100A60000E94F00486E394E0DF91CF910C94F504AA
:100A7000CF93DF93D62FC72FFC01808180620E9425
:100A80001F0182E10E94F0048D2F0E94F0048C2F40
:100A90000E94F00486E394E0DF91CF910C94F5047A
:100AA000CF93DF93EC018B81882371F088810E94C2
:100AB0001F0189819A810E94F50491E0811190E0E3
:100AC000892FDF91CF9108950E94730281E08B837B
:100AD000CE010E945005982F8111E8CFF1CF9C01E3
:100AE000DC01A058BF4FEC9191E09E0F9C93E20F68
:100AF000F32FF11D608397FD1C920895FC01808106
:100B00008076803611F48181089580818295867087
:100B10008E5F0895CF92DF92EF92FF920F931F9313
:100B2000CF93DF93EC0109E11EE2EE24E394F12C74
:100B300093E0D92ECC24C394CE010E947E058093ED
:100B4000CB02E091CB02E1501092CA028FEF90915C
:100B5000CA029E1768F4A091CA02AC0FBD2FB11D46
:100B60009C9189279091CA029F5F9093CA02EFCF10
:100B7000EC0FFD2FF11D8083F8948091C902813024
:100B800059F48091C802811738F01092C9028091FF
:100B90006F008D7F80936F0078948091C9028130BF
:100BA00031F48091C802843138F2C12CC5CF8091D4
:100BB000C90281110EC0F89480916F008F7D8093DF
:100BC0006F00B59B09C080916F00806280936F00B9
:100BD0007894C110B1CF56C0E091C602F091C7021F
:100BE00080819091C502970101C0220F9A95EAF782
:100BF000822B808380918400909185008A5A9C4F3B
:100C00009093C4028093C3028091C3029091C40266
:100C100090938900809388007894D093C202C09307
:100C2000C1021092CA021092C00288818093BF0252
:100C3000D092C9021092C802B19A80916F0082606E
:100C400080936F008091C9028330E1F38091C002EC
:100C50008823B1F0E091BD02F091BE02E757FF4F4B
:100C60008081918101969183808383E090E0DF9180
:100C7000CF911F910F91FF90EF90DF90CF9008954B
:100C80008091C9021B3108F01150015009F052CF78
:100C90008091570390915803019690935803809345
:100CA000570386E090E0E3CF089590E080E0089558
:100CB000EF92FF920F931F93CF93DF93DC01149673
:100CC0002D913C912417350710F490E01DC0EA01E6
:100CD0007B018C01FC0180810E941F01D8011196CB
:100CE0008D919C91DC01ED91FC910280F381E02DCE
:100CF000AE01B7010995C817D90739F781E00E94FD
:100D0000AB0291E08111E1CF892FDF91CF911F914B
:100D10000F91FF90EF900895CF93DF93CDB7DEB79B
:100D200061970FB6F894DEBF0FBECDBF1982A3E264
:100D3000B4E0FE013196BF019C9111968C91119700
:100D4000129691838283329684E0A333B807A1F789
:100D500041E150E080913304909134040E945806A0
:100D600061960FB6F894DEBF0FBECDBFDF91CF9175
:100D700008950E949B031092800380937F0308953F
:100D8000FF920F931F93CF93DF938C01C62FDCE06C
:100D9000683010F0C850DDE0F801808180620E9468
:100DA0001F018D2F0E94F00486E394E00E94F50459
:100DB000F8018081806261E070E090E00E94B906F5
:100DC00086E394E00E947A04F82EF8018081806224
:100DD0000E941F018D2F0E94F00481E090E001C06D
:100DE000880FCA95EAF78F290E94F00486E394E001
:100DF000DF91CF911F910F91FF900C94F5040F9309
:100E00001F93CF93DF938C01C62FD2E1683010F08F
:100E1000C850D3E1F801808180620E941F018D2FAC
:100E20000E94F00486E394E00E94F504F8018081BA
:100E3000806261E070E090E00E94B90686E394E091
:100E40000E947A04992702C095958795CA95E2F782
:100E50008170DF91CF911F910F910895FF920F93B1
:100E60001F93CF93DF931F92CDB7DEB78C016983B9
:100E7000F42EF8014783608785E090E095838483B2
:100E8000642FCE0101960E94FF06F80116826F2D95
:100E9000CE0101960E94FF06882319F083E0F80135
:100EA00086830E94F501F8016083718382839383B6
:100EB0000F90DF91CF911F910F91FF900895EF92C6
:100EC000FF920F931F93CF93DF938C01C62FE42ED5
:100ED00084E1F82ED2E1683020F0C85095E1F92E77
:100EE000D3E1F801808180620E941F018F2D0E9452
:100EF000F00486E394E00E94F504F80180818062AA
:100F000061E070E090E00E94B90686E394E00E9400
:100F10007A0421E030E001C0220FCA95EAF7F1E03F
:100F2000C82FC22BEF1619F02095C22FC823F80145
:100F3000808180620E941F018D2F0E94F0048C2FFF
:100F40000E94F00486E394E0DF91CF911F910F910E
:100F5000FF90EF900C94F504FC01962F828D8F3F4B
:100F600031F0603140F4CF014B960C945F07642F51
:100F7000892F0C94840108950F931F93CF93DF93CF
:100F8000C62F8C01055E1F4FD1E062FB442740F95C
:100F90004D2768E0C8010E945F07C1FB442740F964
:100FA0004D2767E0C8010E945F074C2F40954170B4
:100FB00066E0C801DF91CF911F910F910C945F07FC
:100FC000FF920F931F93CF93DF938C01C62FF42EC4
:100FD000D0E0683010F0C850D1E0F8018081806224
:100FE0000E941F018D2F0E94F00486E394E00E946E
:100FF000F504F8018081806261E070E090E00E9479
:10100000B90686E394E00E947A0421E030E001C052
:10101000220FCA95EAF7C82FC22BFF2019F020959E
:10102000C22FC823F801808180620E941F018D2F8A
:101030000E94F0048C2F0E94F00486E394E0DF917C
:10104000CF911F910F91FF900C94F504603110F433
:101050000C94E0070895CF93DF93EC0140E06E819C
:101060000E94AC0741E06E81CE010E94AC0740E0D7
:101070006E81CE010E94AC078BE891E00197F1F7F9
:10108000DF91CF910895AF92BF92CF92DF92EF920E
:10109000FF920F931F93CF93DF93EC018A8D8E0104
:1010A000095F1F4FC62ED12C8F3F09F482C07E01ED
:1010B0008BE1E80EF11C8B8D80620E941F0182E1A2
:1010C0000E94F00486E394E00E94F5048B8D806218
:1010D00062E070E090E00E94B90686E394E00E942E
:1010E0007A04B82E86E394E00E947A0460E0782FB8
:1010F000CB018B29F80130E020E001E010E04191C4
:10110000B801042E02C0660F771F0A94E2F76095BB
:10111000709586239723B601022E02C075956795B8
:101120000A94E2F76170772702C0660F771F4A952D
:10113000E2F7862B972B2F5F3F4F24303105F9F6CE
:101140002E81680102C0CC0CDD1C2A95E2F7C09408
:10115000D094C822D922B601C7010E9438058E81D9
:10116000B80102C0660F771F8A95E2F7C62AD72A10
:10117000B601C7010E9438058E81B80102C0660F12
:10118000771F8A95E2F7609570956C217D21C701E4
:101190000E9438058BE891E00197F1F7DF91CF913C
:1011A0001F910F91FF90EF90DF90CF90BF90AF9085
:1011B0000895F12CE12C5E01EBE1AE0EB11CF801BB
:1011C00081918F019A8D9F3F39F141E0682FC501D0
:1011D0000E942608A6010E2C02C0559547950A9438
:1011E000E2F74170F80131976081CE010E94AC07AF
:1011F000FFEFEF1AFF0A84E0E816F10401F7CE01D1
:10120000DF91CF911F910F91FF90EF90DF90CF90E2
:10121000BF90AF900C942B080E946501DBCFAF927A
:10122000BF92CF92DF92EF92FF920F931F93CF93D3
:10123000DF93EC01F62E6C810E94AC076D816F3F4D
:1012400021F040E0CE010E94AC070F2D10E08C8908
:1012500084FF3AC06E0187E0C80ED11CF12CE12C4E
:101260005E01EBE1AE0EB11CF60181916F019A8D2A
:101270009F3F39F141E0682FC5010E942608A8016F
:101280000E2C02C0559547950A94E2F74170F6017D
:1012900031976081CE010E94AC07FFEFEF1AFF0A81
:1012A00088E0E816F10401F7CE01DF91CF911F919C
:1012B0000F91FF90EF90DF90CF90BF90AF900C9484
:1012C0002B080E946501DBCFB80184E07595679516
:1012D0008A95E1F7CE010E9443086F2DCE01DF9180
:1012E000CF911F910F91FF90EF90DF90CF90BF9023
:1012F000AF900C94430841E00E940F0981E090E018
:10130000089541E0682F89ED93E00E940F0981E084
:1013100090E008950F931F93CF93DF938C01D0E05B
:10132000C0E0F801EC0FFD1F6491662339F041E045
:1013300089ED93E00E940F092196F3CFCE01DF9152
:10134000CF911F910F91089540E00C940F09CF9316
:10135000DF93CDB7DEB728970FB6F894DEBF0FBE88
:10136000CDBF98E0EFE0F1E0DE01119601900D9223
:101370009A95E1F79091F103961708F46FEF262FF5
:1013800030E0220F331F41E050E04C0F5D1F240F6F
:10139000351FF9016081680F606889ED93E0289638
:1013A0000FB6F894DEBF0FBECDBFDF91CF910C9486
:1013B000A40961E00E94A4098BE39FE10197F1F782
:1013C000089589ED93E00E94D90960E080E00E94D1
:1013D000A70984E890E00E948A0982ED80938D023B
:1013E000089589ED93E00E94D90960E080E00E94B1
:1013F000A70980E890E00E948A0988EC80938D021A
:10140000089589ED93E00E94D90960E080E00E9490
:10141000A70980E790E00E948A0982E080938D020C
:10142000089589ED93E00E94D90960E080E00E9470
:10143000A70988E690E00E948A0981E080938D02E6
:1014400008953F924F925F926F927F928F929F92F8
:10145000AF92BF92CF92DF92EF92FF920F931F93C2
:10146000CF93DF93C82F362E142FD22F81E0809395
:10147000A10280917B0290917C02019690937C0264
:1014800080937B02C0939F020093A10181E0C11170
:1014900001C080E08093A0020E94F50160939B024E
:1014A00070939C0280939D0290939E02011104C050
:1014B0008091080183FF98C0CC2309F495C08091E6
:1014C0008702D81709F48AC0809108018072D0FD84
:1014D00004C0882321F082E003C08823E1F381E087
:1014E0008093980280919A02882329F08091980233
:1014F0008C6F0E94F80480917A02882309F46EC0F0
:101500006D2F70E084E6189F600D711D1124072E69
:10151000000C880B990B0E945E1F2B013C0120E000
:1015200030E040E05FE30E944A1E0E942D1F6B01E5
:101530007C01812C912C30E8A32E3FE3B32E00E0F8
:1015400080E1C81687E2D806E104F104E0F001501A
:1015500020E030E040E251E4C501B4010E94BB1E2E
:101560004B015C01AC019B01C301B2010E940E2042
:1015700020E030E040E05FE30E944A1E0E942D1F01
:101580006B017C01DDCF20E030E040E85FE3C50186
:10159000B4010E94B61E712CC4E02AE0822E912C68
:1015A000A12CB12C87FF32C080E490E090932404FA
:1015B00080932304909326048093250490932A0417
:1015C0008093290490932C0480932B0482E090E074
:1015D00090932804809327040E948C06109388021D
:1015E000D09387023092A001DF91CF911F910F918C
:1015F000FF90EF90DF90CF90BF90AF909F908F9033
:101600007F906F905F904F903F900895C114D104E8
:10161000E104F10411F4071588F1002319F04424C2
:1016200043940711412C5C2EC1506C2E84E085152B
:1016300058F0C701B601A50194010E949B20605D8E
:10164000442D852D0E942B01C23069F4CEEFC50DCB
:1016500084E0861540F0E62DF0E0EE0FFF1FED5D13
:10166000FB4F11821082C701B601A50194010E94AF
:101670009B2069017A017394C9CFC150C7FDA6CFE1
:10168000C530DCF7EC2FF0E0EE0FFF1FED5DFB4FF8
:1016900011821082F2CFDF92EF92FF920F931F938D
:1016A000CF93DF93D42FC22F0E94210A809108018B
:1016B00082FD0CC06C2F617089E0DF91CF911F918A
:1016C0000F91FF90EF90DF900C9484010C2F10E0AD
:1016D00024E6D29F000D111D1124E80180917D02A6
:1016E00090917E0280179107A9F0C80189519C4F03
:1016F000873F9A42B8F086E88093D1038FEA8093BF
:10170000D2038093D3038FEF8093D40310937E0290
:1017100000937D02DF91CF911F910F91FF90EF9089
:10172000DF900895E0905104083E83E018077CF1B3
:101730002091D603C80168EE73E00E948720D82E5E
:10174000F92E8CEF820F0E944301CD2DDF2D81E019
:1017500080935104FF24F39460E0C436D10544F132
:101760002091D603CE0164E670E00E948720D82E37
:10177000F92E8DEF820F0E944301CD2DDF2D81E0E8
:1017800080935104CA30D105DCF460E032C0E091AE
:10179000D603E450E4303CF40E2E000CFF0BEF5265
:1017A000FC4F8FEF8083F12C64E204361105C4F600
:1017B0008091D60383500E944301CA30D105B4F012
:1017C0002091D603CE016AE070E00E948720D82ED7
:1017D0008EEF820F0E944301CD2D8091D6036C2F96
:1017E00081500E944301E092510490CF64E2F110D5
:1017F000CCCF8091D60382500E944301EECF0F934D
:10180000082F2091B40223548091B60298E9980FD2
:10181000883618F468E10E947B20492F6091B70256
:101820008091B1020E944B0B0F9108950F93AC0170
:1018300080919F02882371F120919402309195024A
:101840002E5833404217530728F550939502409382
:1018500094029091080193FF1DC02091870291E0AE
:10186000920F909387029C3358F0909188022B53EB
:101870002093870221E0290F283170F420938802F9
:101880000091A10120918702409188026091A001FE
:101890000E94210A0F910895975190938802F0CFEA
:1018A0008F929F92AF92BF920F931F93CF93DF932C
:1018B000CDB7DEB7A1970FB6F894DEBF0FBECDBF90
:1018C00019A2423008F44AE08E010F5D1F4F842EAA
:1018D000912CB12CA12CA50194010E949B20E62FF4
:1018E000B901CA01EA3044F5E05DD801EE938D01FB
:1018F000232B242B252B79F790E080E0109769F0BB
:10190000FD0101900020E9F73197AF014A1B5B0B05
:10191000BD0189ED93E00E940102A1960FB6F894F3
:10192000DEBF0FBECDBFDF91CF911F910F91BF9052
:10193000AF909F908F900895E95CD7CFCF93DF93BE
:10194000EC01643071F4C83E83E0D80760F480E3B2
:101950000E948109C436D10530F480E30E948109D8
:1019600002C06230B9F7CA30D10518F480E30E9492
:101970008109BE0190E080E04AE0DF91CF910C94B4
:10198000500CCF93DF9361E080E00E94A709809123
:10199000A102811106C08CEB90E0DF91CF910C94F5
:1019A0008A09D0919F02C091A10164E080917B02DD
:1019B00090917C020E949E0C88EB90E00E948A0924
:1019C00062E08D2F90E00E949E0C8DE20E948109C2
:1019D00080E3C11181E30E9481098DE20E948109A7
:1019E0008091870280FD03C08EEA90E0D6CF83EB22
:1019F00090E0D3CFCF92DF92EF92FF920F931F939D
:101A0000CF93DF93CDB7DEB762970FB6F894DEBF02
:101A10000FBECDBF082F6091EE036D7F6093EE0384
:101A2000686089ED93E00E94A40989ED93E00E942B
:101A3000D90960E080E00E94A7098FE091E00E9450
:101A40008A0960E083E00E94A709F0908D021DEEF4
:101A50001F0D1A3018F480E20E948109612F70E096
:101A600090E080E04AE00E94500C1CEE1F0D60E008
:101A700086E00E94A70983E091E09A8389838BEF37
:101A800090E09C838B8383EF90E09E838D838BEE2D
:101A900090E098878F8383EE90E09A8789878BED1B
:101AA00090E09C878B8783ED90E09E878D878DECFF
:101AB00090E0988B8F8784EC90E09A8B898B80ECF8
:101AC00090E0193040F4E12FF0E0EE0FFF1FEC0F33
:101AD000FD1F818192810E948A0961E080E00E945D
:101AE000A70980918C02882319F08EE30E94810956
:101AF000C02ED12CF12CE12C193070F586E0189F06
:101B0000F0011124E95EFE4F8481882329F107FD4D
:101B100021C080E30E9481090034E0F480E30E9448
:101B200081090032B8F480E30E948109003190F409
:101B300080E30E948109083068F480E30E948109F3
:101B4000043040F480E30E948109023018F480E3FD
:101B50000E94810942E001C04AE0C701B6010E942B
:101B6000500C80918C02811113C0193048F486E02A
:101B7000189FF0011124E95EFE4F8581882341F012
:101B800061E08EE00E94A7098CE091E00E948A0942
:101B9000809189028823F1F061E080918A020E949D
:101BA000A7096091EE03862F82608093EE036A603E
:101BB00089ED93E062960FB6F894DEBF0FBECDBFFD
:101BC000DF91CF911F910F91FF90EF90DF90CF9019
:101BD0000C94A40962960FB6F894DEBF0FBECDBF79
:101BE000DF91CF911F910F91FF90EF90DF90CF90F9
:101BF000089589ED93E00E94D90960E080E00E9499
:101C0000A70981EA90E00E948A0961E080E00E94D1
:101C1000A70988E990E00E948A096091060170E0B6
:101C200090E080E04AE00C94500C0F931F93CF9308
:101C3000DF930E94730280E20E941F0186E394E01A
:101C40000E94F504811126C180918F02811104C187
:101C500082E294E00E9414058091F3038F3F09F41F
:101C600057C00E94730284EF93E00E94140541E084
:101C700068E084EF93E00E94E00741E066E084EFD3
:101C800093E00E94E00741E067E084EF93E00E9468
:101C9000E00767E089ED93E00E94BC076091DE03F6
:101CA000662329F041E084EF93E00E94260841E09A
:101CB0006091DD0384EF93E00E94260841E060918B
:101CC000DF0384EF93E00E94260800EE13E0C9EDE5
:101CD000D3E0F80161918F0141E084EF93E00E942D
:101CE0002608F3E0043E1F07A1F70EED13E040E0E5
:101CF0006F8584EF93E00E9426086F85603120F4A1
:101D000084EF93E00E94C00621960C171D0779F717
:101D10008091ED0388608093ED0382E08093F1036E
:101D20001092F2038BE39DE00197F1F740E06091A0
:101D3000DD0389ED93E00E94AC0740E06091DF0392
:101D400089ED93E00E94AC076091DE036F3F29F0BC
:101D500040E089ED93E00E94AC076091ED0364FDE3
:101D60007DC063E089ED93E00E944308CBE4D6E4B4
:101D7000CE010197F1F763E089ED93E00E944308FB
:101D80002197F1F763E089ED93E00E94430883E532
:101D900092E00197F1F762E089ED93E00E94430839
:101DA0006091ED03606289ED93E00E94A40984E0F4
:101DB0008093EE036CE089ED93E00E94A40989ED25
:101DC00093E00E94D90982E08093EF0366E089EDF9
:101DD00093E00E94A40940E065E082E294E00E9462
:101DE000E00765E082E294E00E94C00644E050E033
:101DF0006091220485EF93E00E942E0743E050E0BB
:101E00006091220487E094E00E942E0742E050E0B7
:101E10006091220480E194E00E942E0741E050E0AE
:101E2000609122048EEF93E00E942E0750E040E084
:101E30006091220489E194E00E942E0780910701BD
:101E4000893011F40E94F90D10928B0210928E02CB
:101E500010928D0210928C0281E01DC0606289EDAB
:101E600093E00E94A4098BE496E40197F1F7609156
:101E7000ED03606289ED93E00E94A40983E592E09E
:101E80000197F1F76091ED03606289ED93E00E94A4
:101E9000A40986CF80E080938F02DF91CF911F91BC
:101EA0000F910895CF93DF93C0918B02CF5FC093C2
:101EB0008B0261E080E00E94A709C7FF0CC08EE89A
:101EC00090E0DF91CF910C948A0961E06C0F6093F0
:101ED0008B0267FDF4CFC0918B028C2F0E941F01F3
:101EE00086E394E00E94F504D82F882311F0843013
:101EF00061F785E990E00E948A09C03118F480E317
:101F00000E9481096C2F70E090E080E040E10E9427
:101F1000500C80E2D43009F48FE3DF91CF910C9420
:101F2000810942E050E06DE971E089ED93E00C94A5
:101F3000010285ED8093BC008091A9039091AA03D2
:101F4000A091AB03B091AC030796A11DB11D23E096
:101F5000B695A795979587952A95D1F72091BC00BE
:101F600024FD03C01092A70308954091A903509146
:101F7000AA036091AB037091AC03452B462B472B12
:101F800069F30097A105B10541F02AE22A95F1F71E
:101F900000C00197A109B109E1CF8091A8030C9479
:101FA0008A022F923F924F925F926F927F928F920E
:101FB0009F92AF92BF92CF92DF92EF92FF920F93D8
:101FC0001F93CF93DF9300D000D0CDB7DEB79C83B3
:101FD0008B837C0141E8E40EF11C6C0150E8C50ED6
:101FE000D11C8C010E571F4F8D579F4F2C018B8199
:101FF0009C818C579F4F4C0122242A94AB80BC803B
:1020000097E8A90EB11CEB81FC81EB57FF4FFA83D7
:10201000E983F7018081F6019081891709F4BAC03C
:10202000EB81FC81E80FF11D308037FE6DC0F801B7
:102030009081891739F0F501208131812F5F3F4F61
:1020400031832083F8018083F2012082832D807602
:10205000F401803609F441C0832D829586708E5F2D
:102060008083F8012081F4018081820F9927991FD4
:10207000813891059CF180E8682E621AF894F60187
:102080004081F8018081841708F044C0F42FF81BC8
:102090008F2FF60180837894F80160814617E8F568
:1020A000712C50E06B817C81CB01860D971D0E94C5
:1020B000FC21F80160814B815C81460F511DBA0102
:1020C000A3018B819C810E94FC21F7018081F80192
:1020D0009081891BF7018083F8011082F7019081BC
:1020E0009F5F9083F8018081392F381B97FF02C0D2
:1020F000F7011082F2012081F40190819317A9F079
:102100003226F201308285CFF40180818111E6CF41
:102110003082A7CF862D840FBCCF461B50E08B8129
:102120009C81860F911DBC01CCCF32122AC04B81FD
:102130005C81480F511DCA01E981FA8140815181BA
:102140004F5F5F4F51834083F7013081F801308347
:102150000097B1F20F900F900F900F90DF91CF91F9
:102160001F910F91FF90EF90DF90CF90BF90AF90B5
:102170009F908F907F906F905F904F903F902F90A7
:102180000895F5018081918101969183808390E08B
:1021900080E0DACF90E080E0DDCF6F927F928F9287
:1021A0009F92AF92BF92CF92DF92EF92FF920F93E6
:1021B0001F93CF93DF93E0919602F0919702D58120
:1021C000D3709780868073806280A82EE894A7F8E9
:1021D00087FD9AC0D061B62EE894B7F867FDD86045
:1021E000C42EE894C7F811E147FF10E1D22EE8941D
:1021F000D7F827FD1260F02EE894F7F807FD146079
:102200000E2D0F77E7FC1860C92DC82588E0C82778
:10221000C725C625C027CF25CD25CC25CB25CA254A
:10222000CD27C12765EE82EA91E00E946F0560E14B
:1022300082EA91E00E946F05662D82EA91E00E9499
:102240006F05672D82EA91E00E946F0562E082EAE5
:1022500091E00E946F056D2F82EA91E00E946F0568
:10226000682D82EA91E00E946F05692D82EA91E073
:102270000E946F056A2D82EA91E00E946F056B2D26
:1022800082EA91E00E946F05612F82EA91E00E944C
:102290006F056C2D82EA91E00E946F056D2D82EA38
:1022A00091E00E946F056F2D82EA91E00E946F0518
:1022B000602F82EA91E00E946F056C2F6F7782EAAF
:1022C00091E00E946F056FEF82EA91E00E946F0536
:1022D00082EA91E00E94D10F909397028093960238
:1022E000009711F00E948A0581E0DF91CF911F9144
:1022F0000F91FF90EF90DF90CF90BF90AF909F90A5
:102300008F907F906F900895D46165CF90E026E024
:10231000829FF0011124E95EFE4F2381261730F0E1
:10232000FC01E050FF4F60830C943B1E0895893000
:1023300010F40C9486110895CF93DF93C7E1D1E098
:10234000698188810E949711269681E0CD34D80753
:10235000B9F7DF91CF9108951F920F920FB60F92A8
:1023600011242F933F938F939F93AF93BF938091AB
:10237000A3029091A402A091A502B091A60230916F
:10238000A20223E0230F2D3758F50196A11DB11DA0
:102390002093A2028093A3029093A402A093A5028B
:1023A000B093A6028091A7029091A802A091A902E1
:1023B000B091AA020196A11DB11D8093A70290932E
:1023C000A802A093A902B093AA02BF91AF919F91D6
:1023D0008F913F912F910F900FBE0F901F901895E6
:1023E00026E8230F0296A11DB11DD2CF1F920F9296
:1023F0000FB60F9211242F933F934F935F936F93D8
:102400007F938F939F93AF93BF93EF93FF938091AD
:10241000B900887F803609F44AC0F0F5883209F4A3
:10242000A7C018F5803109F49BC0B8F4882309F4DB
:10243000F9C0883009F494C0FF91EF91BF91AF913A
:102440009F918F917F916F915F914F913F912F91CC
:102450000F900FBE0F901F901895883109F488C017
:10246000803251F78093A50314C0803409F49DC0D5
:1024700040F48033B9F38833F9F68093A50385ECF3
:10248000B0C0803509F485C0883509F496C0883419
:1024900099F60E94990FD0CF883909F48CC038F58D
:1024A000883729F050F4883611F0803729F683E018
:1024B0008093A7031092790257C0883809F47BC033
:1024C000803919F0803809F0B7CF809179028032D5
:1024D00008F071C0E091790281E08E0F809379025B
:1024E0008091BB00F0E0E75AFD4F80833DC0803B08
:1024F00039F0E0F4803A09F479C0883A09F09CCFC9
:1025000084E08093A7031092580210925702E09142
:102510007D03F0917E0309958091570281110FC0D0
:1025200081E0809357021092370209C0803C09F481
:10253000A6CF883C09F4A3CF883B09F07DCFE0917A
:10254000580281E08E0F80935802F0E0E95CFD4F65
:1025500080818093BB00909158028091570229C0DE
:10256000809182038093BB0085EC8093BC0064CF94
:102570009091A4038091A303981758F5E091A403C8
:1025800081E08E0F8093A403F0E0ED57FC4F808133
:10259000E9CFE091A40381E08E0F8093A4038091A2
:1025A000BB00F0E0ED57FC4F80839091A403809135
:1025B000A3039817C8F285E8D8CFE091A40381E07F
:1025C0008E0F8093A4038091BB00F0E0ED57FC4F89
:1025D00080838091A60381115CCF81E08093810389
:1025E00084EA8093BC001092A70326CF85EC8093E9
:1025F000BC001092A70380917902803230F4E09100
:102600007902F0E0E75AFD4F10826091790270E0A4
:10261000E0917B03F0917C0389E592E009951092AB
:1026200079020ACF1092A50334CF1F920F920FB6F2
:102630000F9211242F933F934F935F938F939F9308
:10264000AF93BF93EF93FF938091D603882309F450
:1026500048C088B18F6088B985B1817C85B9E09127
:10266000D503F0E0EF52FC4F808125B190E09595C5
:102670008795959587958E739927822B85B98BB110
:10268000877C8BB9E091D503F0E0EF52FC4F80815D
:102690002BB138E0839FC001112488739927822BC6
:1026A0008BB94091D5038091D70328B1480F5527A6
:1026B000551F81E090E002C0880F991F4A95E2F70C
:1026C00080959095822388B98091D5038F5F809300
:1026D000D5039091D5038091D603981710F01092EE
:1026E000D5038091320290913302A0913402B091CF
:1026F00035020196A11DB11D8093320290933302E1
:10270000A0933402B0933502FF91EF91BF91AF9146
:102710009F918F915F914F913F912F910F900FBE9D
:102720000F901F9018951F920F920FB60F921124C1
:10273000DF92EF92FF920F931F932F933F934F934C
:102740005F936F937F938F939F93AF93BF93CF9339
:10275000DF93EF93FF93B19A8091C3029091C402EB
:1027600080549C4F9093C4028093C3028091C30213
:102770009091C402909389008093880080913102E7
:10278000882371F010923102189B26C081E080935B
:10279000C902B59A80916F00806280936F001CC05F
:1027A0008091C8028F5F8093C8028091C9028430F3
:1027B00009F043C08091C802893030F58091BF0292
:1027C00090E0959587958093BF02189B05C08091F6
:1027D000BF0280688093BF02FF91EF91DF91CF919C
:1027E000BF91AF919F918F917F916F915F914F9129
:1027F0003F912F911F910F91FF90EF90DF900F90DD
:102800000FBE0F901F901895B59A80916F0080624F
:1028100080936F008091BD029091BE02189929C0EB
:10282000FC01E957FF4F808191810196918380835C
:102830001092C80281E08093C9028091C90283305E
:10284000E9F5E091C602F091C70280812091C502AE
:1028500033B190E0022E02C0959587950A94E2F775
:10286000832780FD11C01092C80282E08093C902C4
:1028700025C06091BF020E946F0580E090E0892B27
:10288000B9F20E940000D4CF8091C802893008F0CC
:1028900043C03091BF0281E090E001C0880F2A95CB
:1028A000EAF7908130FF36C080958923808380913C
:1028B000BF0290E0959587958093BF028091C902F1
:1028C000823099F48091C80281118EC0E091C602D5
:1028D000F091C70280819091C50221E030E001C0F3
:1028E000220F9A95EAF7822B80838091C90281306A
:1028F00009F072CF8091C802882309F44ACF8091F1
:10290000C802883308F468CF1092C90280916F0022
:102910008D7F43CF892BCACF8091C802893059F46B
:10292000308181E090E001C0880F2A95EAF7809518
:1029300083238083C3CF8091CA028F5F8093CA02B2
:102940009091CB02891750F51092C8028091C10274
:102950009091C202A091CA02A80FB92FB11D8C910B
:102960008093BF02808141E050E001C0440F2A956E
:10297000EAF7842B808380918400909185008A5AA5
:102980009C4F9093C4028093C3028091C3029091A4
:10299000C402909389008093880090CF81E0809357
:1029A000C0020091C1021091C202E090BD02F090FD
:1029B000BE02C8010E947E05D82ED0E0C0E0CD1531
:1029C00048F4F801EC0FFD1F6081C7010E946F05FC
:1029D0002196F5CF80E090E0892B11F00E94000055
:1029E0001092C80281E042CF8091C8028F3008F473
:1029F0007CCFE091C602F091C70220813091C502E0
:102A000081E090E001C0880F3A95EAF78095822333
:102A100080831092C80281E08093C902E091BD02D8
:102A2000F091BE02E357FF4F80819181019691831F
:102A300080835BCF1F920F920FB60F9211248F935A
:102A40009F93EF93FF93B59AEFE6F0E080818F7D3F
:102A50008083809186009091870080529E4F909352
:102A6000C4028093C3028091C3029091C4029093E8
:102A7000890080938800B19A80818260808384E09D
:102A80008093C9021092C80281E080933102FF91C5
:102A9000EF919F918F910F900FBE0F901F901895FF
:102AA000CF93DF93109239041092380488EE93E0AC
:102AB000A0E0B0E080933A0490933B04A0933C04E0
:102AC000B0933D0483E891E09093370480933604FB
:102AD00010925104109252041092D7031092D60310
:102AE0001092D5038FEF8093D1038093D20380930C
:102AF000D3038093D403F89410925104109252049B
:102B000084E08093D6038091D603882349F084B172
:102B10008E6384B987B18F6087B98AB188638AB9B7
:102B20001092B000DDE0D093B10089EF8093B30044
:102B3000C2E0C0937000789486E080934A0480E8F5
:102B400080934B0488E080934C0410924D041092C3
:102B50004E0410924F041092500486E00E946501CA
:102B60000E94F50160934D0470934E0480934F04CE
:102B7000909350048DE38093420486E394E0909315
:102B8000490480934804109243048FEF80934404D7
:102B90008093450410924704109246041092340426
:102BA00010923304109235041092DC031092DB0370
:102BB0001092F3031092ED038FE08093DD038EE01B
:102BC0008093DE03D093DF038CE08093E0038BE0FF
:102BD0008093E1038AE08093E20389E08093E3033A
:102BE0001092E80381E08093E903C093EA0383E055
:102BF0008093EB0384E08093EC0385E991E090936C
:102C0000DA038093D9031092F5031092F603109221
:102C1000F7031092F8038AE090E09093FA03809310
:102C2000F9031092FB031092FC031092FE03109222
:102C3000FF03109200041092010490930304809308
:102C400002041092040410920504109207041092DA
:102C500008041092090410920A0490930C048093C3
:102C60000B0410920D0410920E0410921004109296
:102C7000110410921204109213049093150480937F
:102C80001404109216041092170410921904109252
:102C90001A0410921B0410921C0490931E0480933B
:102CA0001D0410921F04109220048CE18093D8031D
:102CB000DF91CF910895CF93DF93CDB7DEB76197C2
:102CC0000FB6F894DEBF0FBECDBF789484B5826096
:102CD00084BD84B5816084BD85B5826085BD85B5C0
:102CE000816085BD80916E00816080936E0010923E
:102CF00081008091810082608093810080918100B9
:102D00008160809381008091800081608093800049
:102D10008091B10084608093B1008091B0008160A7
:102D20008093B00080917A00846080937A008091D3
:102D30007A00826080937A0080917A00816080932B
:102D40007A0080917A00806880937A001092C100A6
:102D5000B0E0EB2EB1E0FB2E10E000E0C8010E94D5
:102D6000331ED7018D937D010F5F1F4F0930110571
:102D7000A9F780910601883020F468E086E00E947F
:102D8000861180910701893011F00E949C110E94E8
:102D9000150EECECF2E08FE8DF011D928A95E9F761
:102DA00087E00E946501EAE7F1E02491E6E6F1E0C0
:102DB000E491F0E0EE0FFF1FE55BFE4F459154916B
:102DC00080E091E031E0291741F08F5F932F082ECA
:102DD00001C0990F0A94EAF7F6CF5093C7024093C7
:102DE000C6028093C5028CEC92E09093BE02809361
:102DF000BD022098E091C602F091C7022081309177
:102E0000C50281E090E001C0880F3A95EAF780950D
:102E1000822380831092800011E010938100109231
:102E2000C902B59A80916F00806280936F00809193
:102E30008100887F8160809381001092AC021092A3
:102E4000AB0284E08093AD028BEB89838BE78A83AE
:102E50001B82CE0101960E948A0510929F02109259
:102E60007C0210927B0210929B0210929C021092A4
:102E70009D0210929E021092A0020E9473028DE3A6
:102E80000E941F0186E394E00E94F504811102C0B4
:102E900010939A0280E70E941F0186E394E00E944B
:102EA000F504811175C081E080937A02809133042A
:102EB00090913404009711F00E94732186E090E015
:102EC0000E94D7208C0180E7F801808386E394E09C
:102ED00092838183138280E290E0958384831093B0
:102EE0003404009333040E94730281E0D8011396E6
:102EF0008C93C8010E945005882309F449C081E2DF
:102F0000898B41E050E0BE016F5E7F4F80913304BA
:102F1000909134040E9458061092240410922304C5
:102F2000109226041092250410922804109227046F
:102F300010922A041092290410922C0410922B044F
:102F400010922E0410922D041092300410922F042F
:102F500010923204109231040E948C0681E8898319
:102F600041E050E0BE016F5F7F4F8091330490914C
:102F700034040E9458068FEE898341E050E0BE0180
:102F80006F5F7F4F80913304909134040E94580604
:102F90008091080182FD03C089E00E9465018FEFE6
:102FA0009FEF90937E0280937D0288248A946FE342
:102FB000962E70E6472E7AEE572E612C712C0E94C9
:102FC000F50100914D0410914E0420914F04309171
:102FD0005004601B710B820B930B653171058105E9
:102FE000910508F453C00E94F50160934D0470935D
:102FF0004E0480934F049093500400914B048091B1
:103000004C04013C20F0819580934C0402C00032B6
:10301000D0F380914C04080F00934B04E0904A04D5
:103020008E2D0E946501011105C060E08E2D0E9469
:1030300084012CC00F3F11F461E0F8CFEE2DF0E0D9
:10304000E95CFE4FE491E33009F403C140F4E13060
:10305000C9F0E23009F4F8C007FDEECFE6CFE73063
:1030600009F402C1E83009F407C1E430A9F78091FE
:10307000800080628093800010E010938B000093AA
:103080008A0004C084B5806884BD07BD0E94F50134
:103090000091830210918402209185023091860272
:1030A000601B710B820B930B6E37710581059105C7
:1030B00028F10E94F501609383027093840280934B
:1030C0008502909386029091820281E098279093E6
:1030D0008202992399F0909181029827909381021E
:1030E000992361F090918002982790938002992310
:1030F00029F090917F02892780937F020E94150E0C
:1031000080918F02813009F03DC065E082E294E059
:103110000E94FF06B0E28B9FC0011124809590951C
:1031200061E085FD60E089ED93E00E94BC0758EE08
:10313000A52E53E0B52ED12CC12C0FE1EC2CF501BE
:1031400061915F0180E0603120F484EF93E00E94A0
:10315000FF0690E002C0880F991FEA94E2F780957D
:1031600090950823FFEFCF1ADF0A25E0C216D1049D
:1031700029F780918E02011187C0882309F4D3C0FA
:1031800010928E028CEC92E00E94D10FFC01909381
:10319000970280939602892B09F429C48281909129
:1031A000080194FF51C28B3709F051C280818F3ED4
:1031B00029F4828586FD02C0806482878081877FB2
:1031C000873E09F044C2858140E8849F9001112424
:1031D0008481820F932F911DD401A81BB90BB0934A
:1031E0009502A0939402828586FFF4C48091AB027D
:1031F0009091AC02181619060CF029C28EE0AEEAC6
:10320000B2E001900D928A95E1F781E00E94FF0BF8
:103210008091AD0282FF11C08091B302B0E88B9F14
:10322000900111248091B202820F932F911DF4011D
:10323000E81BF90BCF010E94160C22E030E030931E
:10324000AC022093AB0203C284B5806284BD08BD8A
:103250001DCF8091800080688093800010E01093E3
:1032600089000093880012CF8091B000806880931D
:10327000B0000093B3000ACF8091B00080628093C9
:10328000B0000093B40002CF081709F44CC0E091DD
:103290008D0200938E02E11105C002FF73CF0E94E0
:1032A000110A70CFE13001F503FF05C00E94F90D4E
:1032B00010928D0267CF02FF03C00E94010A62CF05
:1032C00001FF31C089ED93E00E94D90960E080E000
:1032D0000E94A70980E391E00E948A090E94C10C24
:1032E0008AE080938D024ECFE230C9F403FDD7CF40
:1032F00001FF03C00E94F10945CF02FF43CF87E0E1
:1033000080938D0289ED93E00E94D90960E080E00E
:103310000E94A70986E291E00E948A0933CFE73034
:10332000D1F403FDCACF80918D02873009F072C1BC
:1033300061E080E00E94A7098091A102882309F43E
:1033400065C18091880200918702873108F46AC1C3
:103350000E94910F6BC1EA3019F404FFE4CF9FCFB4
:10336000E43108F433C19091D8039E1708F41DC1CD
:1033700000FF4BC000918C02002309F403CF609141
:103380008B02E451E63039F5611120C00E949C1196
:10339000E0918D02E4518FEFE93020F4F0E0E0504D
:1033A000FF4F80810E94FA0C61E08AE00E94A70929
:1033B0008FE191E0011102C088E191E00E948A0949
:1033C00061E080918A020E94A709DCCE68E086E075
:1033D0000E948611DDCF36E0E39FD0011124A95E63
:1033E000BE4F12968C911297681768F013968C91C5
:1033F0001397861740F015968C91811104C08E2F7B
:103400000E949711C5CF00E0C3CF04FF13C0809185
:103410008C02882309F46ECF1092890210928C02DC
:10342000E4518FEFE93008F046C0F0E0E050FF4F84
:10343000808141C001FF42C080918C0281110EC089
:10344000E451E93058F4AE2FB0E046E0E49FF001DB
:103450001124E95EFE4F8581882301F18091890264
:10346000882309F48FCE80918A028F5F80938A022D
:10347000893019F481E080938A0261E080918A02A8
:103480000E94A7096091EE03862F82608093EE036D
:103490006A6089ED93E00E94A40974CEA050BF4FEA
:1034A0008C9180938B0291E090938C0224812093E5
:1034B000890290938A020E94FA0C64CE03FF3DC0F9
:1034C00080918C02882371F120918B028091890276
:1034D000882329F180918A02A8E0B0E0A81BB109F5
:1034E00041E050E002C0440F551FAA95E2F7CA011F
:1034F0008095822380938B0280918B028F3F61F4B1
:10350000E451E93038F456E0E59FF0011124E95E1A
:10351000FE4F838180938B0280918B02CCCF8FEF03
:10352000820FE8CFE150E0938D02E33119F484E19A
:1035300080938D02E0918D0273CF02FF23CE8091A4
:103540008C02882351F190918B028091890288230B
:1035500011F180918A0228E030E0281B3109A1E0B6
:10356000B0E002C0AA0FBB1F2A95E2F79A2B9093F6
:103570008B02E4518FEFE93038F4B6E0EB9FF001B5
:103580001124E95EFE4F838190918B02891720F60A
:1035900010928B02C1CF9F5FEACFEF5FE0938D0265
:1035A000E91740F290938D02C5CFE83C79F402FF11
:1035B00003C00E94E109E6CD04FD7FCE01FFE2CD0C
:1035C000E4E1E0938D028091000175CFE23DB1F41A
:1035D00003FD90CE04FD71CE01FFD4CDF3EDF09349
:1035E0008D0260E088E00E94A70980E20E948109C4
:1035F0002FEF20938B020E94520FC4CDE33D09F0C0
:1036000092CE04FDD6CF02FF8ECEF5CF82E191E0BF
:103610000E948A0980918D028A3009F0B3CD0E9400
:10362000C10CB0CD62E090E00E949E0C8AE30E9443
:1036300081090C3330F462E0802F90E00E949E0CF0
:10364000E9CF0E94910FE6CF8B3709F4B7CD2090D8
:10365000960230909702C1010E947E05803109F0E8
:10366000C6C1D1018C91853E09F0C1C114968C91DF
:103670001497823009F0BBC116969C9116978091E1
:10368000000198139BC117969C9117978091070191
:10369000981394C115968C91159790E09C0114E0B5
:1036A000220F331F1A95E1F720781996AC901997DD
:1036B000E894A7F82A2930E0322F222745E0880F26
:1036C000991F4A95E1F780781896AC90E894A7F88E
:1036D000A82AA20EB32EB11C6501B1E0CB1AD10805
:1036E0001C2DF1018381813039F5F9E0CF16D10429
:1036F00018F5D1011A966C91B0E86B9FC0011124A6
:10370000F10163856F77680F8C2D0E949711E0910E
:103710009602F09197028381806483834FEF193082
:1037200020F4F601E050FF4F4081E12C00E020E062
:1037300060E08A2D0E94CD10E0919602F0919702F0
:1037400083818230A1F429E0C216D10480F482E49E
:1037500083834FEF193020F4F601E050FF4F408192
:10376000E12C00E020E060E08A2D0E94CD10E09185
:103770009602F09197028381833009F041C039E0CD
:10378000C316D104E8F5628570E0CB019695982FB9
:10379000882797958795992723852F77280F392F85
:1037A000311DB6E0660F771FBA95E1F7607877278D
:1037B00084858F77682B8FEF193020F4F601E05065
:1037C000FF4F808126233723232B09F40AC2682B5D
:1037D0008C2D0E949711E0919602F09197028381BF
:1037E000806483834FEF193020F4F601E050FF4FDF
:1037F0004081E12C00E020E060E08A2D0E94CD10A5
:10380000E0919602F09197028381853009F077C0AC
:1038100049E0C416D10408F072C0628570E0CB01A3
:1038200026E0880F991F2A95E1F7582F5078E52E4A
:1038300084858F77E82ACB0135E0880F991F3A9568
:10384000E1F7082F007885858F77082BCB0144E0BE
:10385000880F991F4A95E1F7A82FA0782A2E868510
:103860008F77282A83858F777695762F66277795A9
:103870006795680F8C2D0E949711332433943C0C6C
:103880006E2D832D0E94971162E0E62EEC0C602FC6
:103890008E2D0E94971103E00C0D622D802F0E9447
:1038A0009711E0919602F09197028381806483835F
:1038B0004FEF193020F4F601E050FF4F4081B8E09F
:1038C0002FEFB31528F0E32DF0E0E050FF4F2081FB
:1038D000E8E08FEFEE1528F0EE2DF0E0E050FF4F1E
:1038E0008081EE24EA94093028F4E02FF0E0E050E3
:1038F000FF4FE080082F60E08A2D0E94CD10E091FC
:103900009602F09197028381863069F529E0C2160C
:10391000D10448F586E483834FEF193020F4F60193
:10392000E050FF4F4081E1E0EC0D2FEFE93020F453
:10393000F0E0E050FF4F2081E2E0EC0D0FEFE930C6
:1039400020F4F0E0E050FF4F0081E3E0EC0DEE24C6
:10395000EA94E93020F4F0E0E050FF4FE08060E0CE
:103960008A2D0E94CD10E0919602F09197028381FA
:10397000883061F488E4838340910701E42E00914C
:10398000000120E06DE08AE30E94CD10E0919602F4
:10399000F091970283818F3089F40E949C11E0910D
:1039A0009602F0919702838180648383E12C00E08A
:1039B00020E040E06B2D8A2D0E94CD10E091960210
:1039C000F09197028681811112C0878181110FC009
:1039D0008381873061F487E4838340910701E42E7B
:1039E0000091000120E06DE08AE30E94CD100E946A
:1039F000F501009190021091910220919202309174
:103A00009302AB01BC01401B510B620B730B43349F
:103A100051056105710508F46DC0D901C8018D5BC0
:103A20009F4FAF4FBF4F8093900290939102A0930E
:103A30009202B09393028091AB029091AC020297F4
:103A400009F043C08091B2029091B102890F809336
:103A5000B20287FF25C09091AD028F778093B202AA
:103A60008091B3028F5F8093B30287FF19C08DE608
:103A70008093B202892F817088588093B30280911D
:103A8000B4028F5F8F3708F0B0C08093B40291FF0B
:103A9000C0C08FEE8093AE028EEA92E00E948A054B
:103AA0008091AD0282FF11C08091B30240E8849FF3
:103AB000900111248091B202820F932F911DD401A5
:103AC000A81BB90BCD010E94160C8091AB029091FE
:103AD000AC02892B79F48BEB89838BE78A831B8279
:103AE000CE0101960E948A05E1E0F0E0F093AC027D
:103AF000E093AB028091A002882399F180910801A4
:103B000083FD2FC020919F0280E6C82E8AEED82E1A
:103B1000E12CF12C222349F030E050E040E0C301D9
:103B2000B2010E949B2069017A010E94F501209157
:103B30009B0230919C0240919D0250919E02621B1B
:103B4000730B840B950BC616D706E806F90648F4E6
:103B50008BEB89838BE78A831B82CE0101960E94BF
:103B60008A0580919A02882309F465C061E08091FA
:103B700042040E949B031092800380937F03813054
:103B800009F44BC022E830E0309347042093460408
:103B90008091430482FD4FC080919902882309F4EB
:103BA0004DC08091080182FF0DC08091A10281115A
:103BB00009C08FEB8093D1038093D2038093D3030A
:103BC0008093D403E0E0F0E0EF2B09F4F8C90E9401
:103BD0000000F5C943E050E05093AC024093AB02C3
:103BE00036CD609570956823F3CD83E48093B4025D
:103BF0008091B6028F5F87FD03C08093B60247CFE6
:103C000088E68093B6028091B7028F5F8093B702F7
:103C10003ECF80E00E94FF0B43CF809148049091FB
:103C20004904DC01ED91FC910284F385E02D0995B6
:103C300080934304AFCF10929902B3CF81E0809379
:103C4000990290919802913009F482E08093980251
:103C500080919A02882309F4A4CF809198028C6FF6
:103C60000E94F8049ECFF999FECF92BD81BDF89ACB
:103C7000992780B50895262FF999FECF1FBA92BDD6
:103C800081BD20BD0FB6F894FA9AF99A0FBE01963D
:103C900008955058BB27AA270E94611E0C94D41F78
:103CA0000E94C61F38F00E94CD1F20F039F49F3FBC
:103CB00019F426F40C94C31F0EF4E095E7FB0C9462
:103CC000BD1FE92F0E94E51F58F3BA17620773075B
:103CD0008407950720F079F4A6F50C9407200EF4DC
:103CE000E0950B2EBA2FA02D0B01B90190010C010C
:103CF000CA01A0011124FF27591B99F0593F50F424
:103D0000503E68F11A16F040A22F232F342F44277B
:103D1000585FF3CF469537952795A795F040539573
:103D2000C9F77EF41F16BA0B620B730B840BBAF043
:103D30009150A1F0FF0FBB1F661F771F881FC2F7AE
:103D40000EC0BA0F621F731F841F48F487957795C2
:103D50006795B795F7959E3F08F0B0CF9395880F7C
:103D600008F09927EE0F9795879508950E94991F5F
:103D700008F481E008950E94CF1E0C94D41F0E9485
:103D8000CD1F58F00E94C61F40F029F45F3F29F074
:103D90000C94BD1F51110C9408200C94C31F0E9459
:103DA000E51F68F39923B1F3552391F3951B550B48
:103DB000BB27AA2762177307840738F09F5F5F4FFE
:103DC000220F331F441FAA1FA9F335D00E2E3AF03D
:103DD000E0E832D091505040E695001CCAF72BD055
:103DE000FE2F29D0660F771F881FBB1F26173707A6
:103DF0004807AB07B0E809F0BB0B802DBF01FF27D8
:103E000093585F4F3AF09E3F510578F00C94BD1FD8
:103E10000C9408205F3FE4F3983ED4F386957795A1
:103E20006795B795F7959F5FC9F7880F911D969590
:103E3000879597F90895E1E0660F771F881FBB1FEC
:103E4000621773078407BA0720F0621B730B840B99
:103E5000BA0BEE1F88F7E09508950E94ED1F88F0D9
:103E60009F5798F0B92F9927B751B0F0E1F0660F3E
:103E7000771F881F991F1AF0BA95C9F714C0B1307F
:103E800091F00E940720B1E008950C940720672F5D
:103E9000782F8827B85F39F0B93FCCF386957795AE
:103EA0006795B395D9F73EF4909580957095619597
:103EB0007F4F8F4F9F4F0895E89409C097FB3EF4C2
:103EC00090958095709561957F4F8F4F9F4F992367
:103ED000A9F0F92F96E9BB279395F69587957795E5
:103EE0006795B795F111F8CFFAF4BB0F11F460FFA5
:103EF0001BC06F5F7F4F8F4F9F4F16C0882311F0FD
:103F000096E911C0772321F09EE8872F762F05C010
:103F1000662371F096E8862F70E060E02AF09A95AB
:103F2000660F771F881FDAF7880F9695879597F9A0
:103F30000895990F0008550FAA0BE0E8FEEF16163A
:103F40001706E807F907C0F012161306E407F5078D
:103F500098F0621B730B840B950B39F40A2661F001
:103F6000232B242B252B21F408950A2609F4A140A4
:103F7000A6958FEF811D811D089597F99F6780E8B1
:103F800070E060E008959FEF80EC089500240A94AB
:103F90001616170618060906089500240A94121624
:103FA0001306140605060895092E0394000C11F457
:103FB000882352F0BB0F40F4BF2B11F460FF04C004
:103FC0006F5F7F4F8F4F9F4F089557FD9058440F5D
:103FD000551F59F05F3F71F04795880F97FB991F68
:103FE00061F09F3F79F08795089512161306140625
:103FF000551FF2CF4695F1DF08C0161617061806B2
:10400000991FF1CF86957105610508940895E8948C
:10401000BB2766277727CB0197F908950E942120B7
:104020000C94D41F0E94C61F38F00E94CD1F20F0B0
:10403000952311F00C94BD1F0C94C31F11240C94F4
:1040400008200E94E51F70F3959FC1F3950F50E083
:10405000551F629FF001729FBB27F00DB11D639F3A
:10406000AA27F00DB11DAA1F649F6627B00DA11DE0
:10407000661F829F2227B00DA11D621F739FB00D86
:10408000A11D621F839FA00D611D221F749F3327F6
:10409000A00D611D231F849F600D211D822F762F8F
:1040A0006A2F11249F5750409AF0F1F088234AF06C
:1040B000EE0FFF1FBB1F661F771F881F91505040D8
:1040C000A9F79E3F510580F00C94BD1F0C94082069
:1040D0005F3FE4F3983ED4F3869577956795B7955F
:1040E000F795E7959F5FC1F7FE2B880F911D969579
:1040F000879597F90895991B79E004C0991F961741
:1041000008F0961B881F7A95C9F78095089597FB4C
:10411000072E16F4009407D077FD09D00E94BD2029
:1041200007FC05D03EF4909581959F4F08957095BA
:1041300061957F4F0895A1E21A2EAA1BBB1BFD01BA
:104140000DC0AA1FBB1FEE1FFF1FA217B307E40776
:10415000F50720F0A21BB30BE40BF50B661F771FCE
:10416000881F991F1A9469F76095709580959095AE
:104170009B01AC01BD01CF010895AA1BBB1B51E1FE
:1041800007C0AA1FBB1FA617B70710F0A61BB70BC7
:10419000881F991F5A95A9F780959095BC01CD016C
:1041A0000895EE0FFF1F0590F491E02D09940F93F1
:1041B0001F93CF93DF938230910510F482E090E05B
:1041C000E0915504F091560430E020E0B0E0A0E02A
:1041D000309799F42115310509F44AC0281B390B91
:1041E00024303105D8F58A819B816115710589F1EB
:1041F000FB0193838283FE0111C0408151810281C2
:10420000138148175907E0F04817590799F4109798
:1042100061F012960C93129713961C933296CF016D
:10422000DF91CF911F910F91089500935504109342
:104230005604F4CF2115310551F04217530738F0D9
:10424000A901DB019A01BD01DF01F801C1CFEF0136
:10425000F9CF9093560480935504CDCFFE01E20F21
:10426000F31F819391932250310939832883D7CF4B
:104270002091530430915404232B41F420910B01DD
:1042800030910C0130935404209353042091090180
:1042900030910A012115310541F42DB73EB7409107
:1042A0000D0150910E01241B350BE0915304F09148
:1042B0005404E217F307A0F42E1B3F0B281739070D
:1042C00078F0AC014E5F5F4F2417350748F04E0F72
:1042D0005F1F5093540440935304819391939FCF55
:1042E000F0E0E0E09CCFCF93DF930097E9F0FC0192
:1042F000329713821282A0915504B0915604ED01B9
:1043000030E020E01097A1F420813181820F931FCB
:1043100020915304309154042817390709F061C0E3
:10432000F0935404E0935304DF91CF910895EA0190
:10433000CE17DF07E8F54A815B819E0141155105E3
:10434000B1F7E901FB83EA8349915991C40FD51F65
:10435000EC17FD0761F4808191810296840F951F0F
:10436000E90199838883828193819B838A83F0E02A
:10437000E0E012968D919C9113970097B9F52D91DD
:104380003C911197CD010296820F931F2091530407
:10439000309154042817390739F6309751F51092A7
:1043A000560410925504B0935404A0935304BCCF08
:1043B000D383C28340815181840F951FC817D907C9
:1043C00061F44E5F5F4F88819981480F591F518377
:1043D00040838A819B81938382832115310509F073
:1043E000B0CFF0935604E09355049ECFFD01DC015D
:1043F000C0CF13821282D7CF6817790768F4FB0108
:10440000DC01E40FF51FA40FB51F02C002900E924D
:1044100041505040D8F708950C940E22FB01DC0166
:1044200002C001900D9241505040D8F70895F89481
:02443000FFCFBC
:10443200FFFFFFFFFFFFFFFFFF00005704800000A8
:10444200004000140054000001017E000101000040
:10445200000001020000000001030000000001044E
:10446200000000000105000000000106080008002D
:1044720000070909090001080700FF0100C0F9A4AB
:10448200B0999282F880908883A7A1868EC289F91A
:10449200F189C7FFABC08C98AF9287C1C1FF8991E8
:1044A200A4FFBF7FADB7ACC69BF0DCF7E3CF9C00A7
:1044B200000000C104940455066A048D047A046B5A
:1044C20004000000007B090102550654063F3F002C
:00000001FF
